{
    "_format": "hh-sol-artifact-1",
    "contractName": "BMT_ERC20",
    "sourceName": "contracts/BMT.sol",
    "abi": [
        {
            "inputs": [
                {
                    "internalType": "string",
                    "name": "name_",
                    "type": "string"
                },
                {
                    "internalType": "string",
                    "name": "symbol_",
                    "type": "string"
                },
                {
                    "internalType": "uint256",
                    "name": "totalSupply_",
                    "type": "uint256"
                }
            ],
            "stateMutability": "nonpayable",
            "type": "constructor"
        },
        {
            "anonymous": false,
            "inputs": [
                {
                    "indexed": true,
                    "internalType": "address",
                    "name": "owner",
                    "type": "address"
                },
                {
                    "indexed": true,
                    "internalType": "address",
                    "name": "spender",
                    "type": "address"
                },
                {
                    "indexed": false,
                    "internalType": "uint256",
                    "name": "value",
                    "type": "uint256"
                }
            ],
            "name": "Approval",
            "type": "event"
        },
        {
            "anonymous": false,
            "inputs": [
                {
                    "indexed": true,
                    "internalType": "address",
                    "name": "from",
                    "type": "address"
                },
                {
                    "indexed": true,
                    "internalType": "address",
                    "name": "to",
                    "type": "address"
                },
                {
                    "indexed": false,
                    "internalType": "uint256",
                    "name": "value",
                    "type": "uint256"
                }
            ],
            "name": "Transfer",
            "type": "event"
        },
        {
            "inputs": [],
            "name": "_foundations",
            "outputs": [
                {
                    "internalType": "address",
                    "name": "",
                    "type": "address"
                }
            ],
            "stateMutability": "view",
            "type": "function"
        },
        {
            "inputs": [],
            "name": "_owner",
            "outputs": [
                {
                    "internalType": "address",
                    "name": "",
                    "type": "address"
                }
            ],
            "stateMutability": "view",
            "type": "function"
        },
        {
            "inputs": [
                {
                    "internalType": "address",
                    "name": "owner",
                    "type": "address"
                },
                {
                    "internalType": "address",
                    "name": "spender",
                    "type": "address"
                }
            ],
            "name": "allowance",
            "outputs": [
                {
                    "internalType": "uint256",
                    "name": "",
                    "type": "uint256"
                }
            ],
            "stateMutability": "view",
            "type": "function"
        },
        {
            "inputs": [
                {
                    "internalType": "address",
                    "name": "spender",
                    "type": "address"
                },
                {
                    "internalType": "uint256",
                    "name": "amount",
                    "type": "uint256"
                }
            ],
            "name": "approve",
            "outputs": [
                {
                    "internalType": "bool",
                    "name": "",
                    "type": "bool"
                }
            ],
            "stateMutability": "nonpayable",
            "type": "function"
        },
        {
            "inputs": [
                {
                    "internalType": "address",
                    "name": "account",
                    "type": "address"
                }
            ],
            "name": "balanceOf",
            "outputs": [
                {
                    "internalType": "uint256",
                    "name": "",
                    "type": "uint256"
                }
            ],
            "stateMutability": "view",
            "type": "function"
        },
        {
            "inputs": [
                {
                    "internalType": "address[]",
                    "name": "miners",
                    "type": "address[]"
                },
                {
                    "internalType": "uint256[]",
                    "name": "values",
                    "type": "uint256[]"
                }
            ],
            "name": "batchRewardMiners",
            "outputs": [],
            "stateMutability": "nonpayable",
            "type": "function"
        },
        {
            "inputs": [
                {
                    "internalType": "address",
                    "name": "foundations",
                    "type": "address"
                }
            ],
            "name": "cancelFoundations",
            "outputs": [],
            "stateMutability": "nonpayable",
            "type": "function"
        },
        {
            "inputs": [],
            "name": "decimals",
            "outputs": [
                {
                    "internalType": "uint8",
                    "name": "",
                    "type": "uint8"
                }
            ],
            "stateMutability": "pure",
            "type": "function"
        },
        {
            "inputs": [
                {
                    "internalType": "address",
                    "name": "spender",
                    "type": "address"
                },
                {
                    "internalType": "uint256",
                    "name": "subtractedValue",
                    "type": "uint256"
                }
            ],
            "name": "decreaseAllowance",
            "outputs": [
                {
                    "internalType": "bool",
                    "name": "",
                    "type": "bool"
                }
            ],
            "stateMutability": "nonpayable",
            "type": "function"
        },
        {
            "inputs": [
                {
                    "internalType": "address[]",
                    "name": "miners",
                    "type": "address[]"
                }
            ],
            "name": "getMultiBalances",
            "outputs": [
                {
                    "internalType": "uint256[]",
                    "name": "",
                    "type": "uint256[]"
                }
            ],
            "stateMutability": "view",
            "type": "function"
        },
        {
            "inputs": [
                {
                    "internalType": "address",
                    "name": "spender",
                    "type": "address"
                },
                {
                    "internalType": "uint256",
                    "name": "addedValue",
                    "type": "uint256"
                }
            ],
            "name": "increaseAllowance",
            "outputs": [
                {
                    "internalType": "bool",
                    "name": "",
                    "type": "bool"
                }
            ],
            "stateMutability": "nonpayable",
            "type": "function"
        },
        {
            "inputs": [
                {
                    "internalType": "uint256",
                    "name": "value",
                    "type": "uint256"
                }
            ],
            "name": "increaseFoundationsToken",
            "outputs": [],
            "stateMutability": "nonpayable",
            "type": "function"
        },
        {
            "inputs": [
                {
                    "internalType": "address",
                    "name": "foundations",
                    "type": "address"
                },
                {
                    "internalType": "uint256",
                    "name": "value",
                    "type": "uint256"
                }
            ],
            "name": "initFoundations",
            "outputs": [],
            "stateMutability": "nonpayable",
            "type": "function"
        },
        {
            "inputs": [],
            "name": "name",
            "outputs": [
                {
                    "internalType": "string",
                    "name": "",
                    "type": "string"
                }
            ],
            "stateMutability": "view",
            "type": "function"
        },
        {
            "inputs": [
                {
                    "internalType": "uint256",
                    "name": "value",
                    "type": "uint256"
                }
            ],
            "name": "reduceFoundationsToken",
            "outputs": [],
            "stateMutability": "nonpayable",
            "type": "function"
        },
        {
            "inputs": [
                {
                    "internalType": "address",
                    "name": "miner",
                    "type": "address"
                },
                {
                    "internalType": "uint256",
                    "name": "value",
                    "type": "uint256"
                }
            ],
            "name": "reduceMinerToken",
            "outputs": [],
            "stateMutability": "nonpayable",
            "type": "function"
        },
        {
            "inputs": [
                {
                    "internalType": "address",
                    "name": "newFoundations",
                    "type": "address"
                }
            ],
            "name": "replaceFoundations",
            "outputs": [],
            "stateMutability": "nonpayable",
            "type": "function"
        },
        {
            "inputs": [
                {
                    "internalType": "address",
                    "name": "miner",
                    "type": "address"
                },
                {
                    "internalType": "uint256",
                    "name": "value",
                    "type": "uint256"
                }
            ],
            "name": "rewardMiner",
            "outputs": [],
            "stateMutability": "nonpayable",
            "type": "function"
        },
        {
            "inputs": [],
            "name": "symbol",
            "outputs": [
                {
                    "internalType": "string",
                    "name": "",
                    "type": "string"
                }
            ],
            "stateMutability": "view",
            "type": "function"
        },
        {
            "inputs": [],
            "name": "totalSupply",
            "outputs": [
                {
                    "internalType": "uint256",
                    "name": "",
                    "type": "uint256"
                }
            ],
            "stateMutability": "view",
            "type": "function"
        },
        {
            "inputs": [
                {
                    "internalType": "address",
                    "name": "to",
                    "type": "address"
                },
                {
                    "internalType": "uint256",
                    "name": "amount",
                    "type": "uint256"
                }
            ],
            "name": "transfer",
            "outputs": [
                {
                    "internalType": "bool",
                    "name": "",
                    "type": "bool"
                }
            ],
            "stateMutability": "nonpayable",
            "type": "function"
        },
        {
            "inputs": [
                {
                    "internalType": "address",
                    "name": "from",
                    "type": "address"
                },
                {
                    "internalType": "address",
                    "name": "to",
                    "type": "address"
                },
                {
                    "internalType": "uint256",
                    "name": "amount",
                    "type": "uint256"
                }
            ],
            "name": "transferFrom",
            "outputs": [
                {
                    "internalType": "bool",
                    "name": "",
                    "type": "bool"
                }
            ],
            "stateMutability": "nonpayable",
            "type": "function"
        }
    ],
    "bytecode": "0x60806040523480156200001157600080fd5b5060405162002b8f38038062002b8f833981810160405281019062000037919062000276565b82600390805190602001906200004f9291906200013d565b508160049080519060200190620000689291906200013d565b506012600a620000799190620003c0565b81620000869190620004fd565b60028190555033600560006101000a81548173ffffffffffffffffffffffffffffffffffffffff021916908373ffffffffffffffffffffffffffffffffffffffff160217905550600254600080600560009054906101000a900473ffffffffffffffffffffffffffffffffffffffff1673ffffffffffffffffffffffffffffffffffffffff1673ffffffffffffffffffffffffffffffffffffffff1681526020019081526020016000208190555050505062000695565b8280546200014b90620005ab565b90600052602060002090601f0160209004810192826200016f5760008555620001bb565b82601f106200018a57805160ff1916838001178555620001bb565b82800160010185558215620001bb579182015b82811115620001ba5782518255916020019190600101906200019d565b5b509050620001ca9190620001ce565b5090565b5b80821115620001e9576000816000905550600101620001cf565b5090565b600062000204620001fe8462000332565b620002fe565b9050828152602081018484840111156200021d57600080fd5b6200022a84828562000575565b509392505050565b600082601f8301126200024457600080fd5b815162000256848260208601620001ed565b91505092915050565b60008151905062000270816200067b565b92915050565b6000806000606084860312156200028c57600080fd5b600084015167ffffffffffffffff811115620002a757600080fd5b620002b58682870162000232565b935050602084015167ffffffffffffffff811115620002d357600080fd5b620002e18682870162000232565b9250506040620002f4868287016200025f565b9150509250925092565b6000604051905081810181811067ffffffffffffffff821117156200032857620003276200063f565b5b8060405250919050565b600067ffffffffffffffff82111562000350576200034f6200063f565b5b601f19601f8301169050602081019050919050565b6000808291508390505b6001851115620003b7578086048111156200038f576200038e620005e1565b5b60018516156200039f5780820291505b8081029050620003af856200066e565b94506200036f565b94509492505050565b6000620003cd826200055e565b9150620003da8362000568565b9250620004097fffffffffffffffffffffffffffffffffffffffffffffffffffffffffffffffff848462000411565b905092915050565b600082620004235760019050620004f6565b81620004335760009050620004f6565b81600181146200044c576002811462000457576200048d565b6001915050620004f6565b60ff8411156200046c576200046b620005e1565b5b8360020a915084821115620004865762000485620005e1565b5b50620004f6565b5060208310610133831016604e8410600b8410161715620004c75782820a905083811115620004c157620004c0620005e1565b5b620004f6565b620004d6848484600162000365565b92509050818404811115620004f057620004ef620005e1565b5b81810290505b9392505050565b60006200050a826200055e565b915062000517836200055e565b9250817fffffffffffffffffffffffffffffffffffffffffffffffffffffffffffffffff0483118215151615620005535762000552620005e1565b5b828202905092915050565b6000819050919050565b600060ff82169050919050565b60005b838110156200059557808201518184015260208101905062000578565b83811115620005a5576000848401525b50505050565b60006002820490506001821680620005c457607f821691505b60208210811415620005db57620005da62000610565b5b50919050565b7f4e487b7100000000000000000000000000000000000000000000000000000000600052601160045260246000fd5b7f4e487b7100000000000000000000000000000000000000000000000000000000600052602260045260246000fd5b7f4e487b7100000000000000000000000000000000000000000000000000000000600052604160045260246000fd5b60008160011c9050919050565b62000686816200055e565b81146200069257600080fd5b50565b6124ea80620006a56000396000f3fe608060405234801561001057600080fd5b50600436106101425760003560e01c8063a457c2d7116100b8578063b2bdfa7b1161007c578063b2bdfa7b1461039d578063d58a8e5c146103bb578063dd62ed3e146103d7578063e17efd9714610407578063e3d016fb14610423578063f5e86ed61461043f57610142565b8063a457c2d7146102d5578063a69fa2c714610305578063a9059cbb14610321578063ad166aa014610351578063af45716a1461036d57610142565b8063313ce5671161010a578063313ce56714610201578063395093511461021f57806368d73a0d1461024f5780636df0ded01461026b57806370a082311461028757806395d89b41146102b757610142565b806306fdde0314610147578063095ea7b31461016557806315e082021461019557806318160ddd146101b357806323b872dd146101d1575b600080fd5b61014f61045b565b60405161015c9190612039565b60405180910390f35b61017f600480360381019061017a9190611ab1565b6104ed565b60405161018c919061201e565b60405180910390f35b61019d610509565b6040516101aa9190611fe1565b60405180910390f35b6101bb61052f565b6040516101c8919061217b565b60405180910390f35b6101eb60048036038101906101e69190611a62565b610539565b6040516101f8919061201e565b60405180910390f35b610209610561565b6040516102169190612196565b60405180910390f35b61023960048036038101906102349190611ab1565b61056a565b604051610246919061201e565b60405180910390f35b61026960048036038101906102649190611ab1565b61059a565b005b61028560048036038101906102809190611b2e565b6106a6565b005b6102a1600480360381019061029c91906119fd565b610824565b6040516102ae919061217b565b60405180910390f35b6102bf61086c565b6040516102cc9190612039565b60405180910390f35b6102ef60048036038101906102ea9190611ab1565b6108fe565b6040516102fc919061201e565b60405180910390f35b61031f600480360381019061031a91906119fd565b61096e565b005b61033b60048036038101906103369190611ab1565b610b0f565b604051610348919061201e565b60405180910390f35b61036b60048036038101906103669190611ab1565b610b2b565b005b61038760048036038101906103829190611aed565b610cf5565b6040516103949190611ffc565b60405180910390f35b6103a5610ef7565b6040516103b29190611fe1565b60405180910390f35b6103d560048036038101906103d091906119fd565b610f1d565b005b6103f160048036038101906103ec9190611a26565b6110d9565b6040516103fe919061217b565b60405180910390f35b610421600480360381019061041c9190611b9a565b611160565b005b61043d60048036038101906104389190611b9a565b611242565b005b61045960048036038101906104549190611ab1565b611324565b005b60606003805461046a9061236d565b80601f01602080910402602001604051908101604052809291908181526020018280546104969061236d565b80156104e35780601f106104b8576101008083540402835291602001916104e3565b820191906000526020600020905b8154815290600101906020018083116104c657829003601f168201915b5050505050905090565b6000803390506104fe8185856113e5565b600191505092915050565b600660009054906101000a900473ffffffffffffffffffffffffffffffffffffffff1681565b6000600254905090565b60008033905061054a8582856115b0565b61055585858561163c565b60019150509392505050565b60006012905090565b60008033905061058f81858561058085896110d9565b61058a919061228f565b6113e5565b600191505092915050565b600660009054906101000a900473ffffffffffffffffffffffffffffffffffffffff1673ffffffffffffffffffffffffffffffffffffffff163373ffffffffffffffffffffffffffffffffffffffff161461062a576040517f08c379a0000000000000000000000000000000000000000000000000000000008152600401610621906120bb565b60405180910390fd5b6000808373ffffffffffffffffffffffffffffffffffffffff1673ffffffffffffffffffffffffffffffffffffffff1681526020019081526020016000205481111561067557600080fd5b6106a282600660009054906101000a900473ffffffffffffffffffffffffffffffffffffffff168361163c565b5050565b600660009054906101000a900473ffffffffffffffffffffffffffffffffffffffff1673ffffffffffffffffffffffffffffffffffffffff163373ffffffffffffffffffffffffffffffffffffffff1614610736576040517f08c379a000000000000000000000000000000000000000000000000000000000815260040161072d906120bb565b60405180910390fd5b805182511461074457600080fd5b60148251111561075357600080fd5b60005b825181101561081f5761080c600660009054906101000a900473ffffffffffffffffffffffffffffffffffffffff168483815181106107be577f4e487b7100000000000000000000000000000000000000000000000000000000600052603260045260246000fd5b60200260200101518484815181106107ff577f4e487b7100000000000000000000000000000000000000000000000000000000600052603260045260246000fd5b602002602001015161163c565b80806108179061239f565b915050610756565b505050565b60008060008373ffffffffffffffffffffffffffffffffffffffff1673ffffffffffffffffffffffffffffffffffffffff168152602001908152602001600020549050919050565b60606004805461087b9061236d565b80601f01602080910402602001604051908101604052809291908181526020018280546108a79061236d565b80156108f45780601f106108c9576101008083540402835291602001916108f4565b820191906000526020600020905b8154815290600101906020018083116108d757829003601f168201915b5050505050905090565b600080339050600061091082866110d9565b905083811015610955576040517f08c379a000000000000000000000000000000000000000000000000000000000815260040161094c9061215b565b60405180910390fd5b61096282868684036113e5565b60019250505092915050565b600560009054906101000a900473ffffffffffffffffffffffffffffffffffffffff1673ffffffffffffffffffffffffffffffffffffffff163373ffffffffffffffffffffffffffffffffffffffff16146109fe576040517f08c379a00000000000000000000000000000000000000000000000000000000081526004016109f59061213b565b60405180910390fd5b600073ffffffffffffffffffffffffffffffffffffffff168173ffffffffffffffffffffffffffffffffffffffff161415610a3857600080fd5b6000806000600660009054906101000a900473ffffffffffffffffffffffffffffffffffffffff1673ffffffffffffffffffffffffffffffffffffffff1673ffffffffffffffffffffffffffffffffffffffff168152602001908152602001600020549050610aca600660009054906101000a900473ffffffffffffffffffffffffffffffffffffffff16838361163c565b81600660006101000a81548173ffffffffffffffffffffffffffffffffffffffff021916908373ffffffffffffffffffffffffffffffffffffffff1602179055505050565b600080339050610b2081858561163c565b600191505092915050565b600560009054906101000a900473ffffffffffffffffffffffffffffffffffffffff1673ffffffffffffffffffffffffffffffffffffffff163373ffffffffffffffffffffffffffffffffffffffff1614610bbb576040517f08c379a0000000000000000000000000000000000000000000000000000000008152600401610bb29061213b565b60405180910390fd5b600073ffffffffffffffffffffffffffffffffffffffff16600660009054906101000a900473ffffffffffffffffffffffffffffffffffffffff1673ffffffffffffffffffffffffffffffffffffffff1614610c1657600080fd5b600080600560009054906101000a900473ffffffffffffffffffffffffffffffffffffffff1673ffffffffffffffffffffffffffffffffffffffff1673ffffffffffffffffffffffffffffffffffffffff16815260200190815260200160002054811115610c8357600080fd5b81600660006101000a81548173ffffffffffffffffffffffffffffffffffffffff021916908373ffffffffffffffffffffffffffffffffffffffff160217905550610cf1600560009054906101000a900473ffffffffffffffffffffffffffffffffffffffff16838361163c565b5050565b6060600660009054906101000a900473ffffffffffffffffffffffffffffffffffffffff1673ffffffffffffffffffffffffffffffffffffffff163373ffffffffffffffffffffffffffffffffffffffff1614610d87576040517f08c379a0000000000000000000000000000000000000000000000000000000008152600401610d7e906120bb565b60405180910390fd5b601482511115610d9657600080fd5b6000825167ffffffffffffffff811115610dd9577f4e487b7100000000000000000000000000000000000000000000000000000000600052604160045260246000fd5b604051908082528060200260200182016040528015610e075781602001602082028036833780820191505090505b50905060005b8351811015610eed57600080858381518110610e52577f4e487b7100000000000000000000000000000000000000000000000000000000600052603260045260246000fd5b602002602001015173ffffffffffffffffffffffffffffffffffffffff1673ffffffffffffffffffffffffffffffffffffffff16815260200190815260200160002054828281518110610ece577f4e487b7100000000000000000000000000000000000000000000000000000000600052603260045260246000fd5b6020026020010181815250508080610ee59061239f565b915050610e0d565b5080915050919050565b600560009054906101000a900473ffffffffffffffffffffffffffffffffffffffff1681565b600560009054906101000a900473ffffffffffffffffffffffffffffffffffffffff1673ffffffffffffffffffffffffffffffffffffffff163373ffffffffffffffffffffffffffffffffffffffff1614610fad576040517f08c379a0000000000000000000000000000000000000000000000000000000008152600401610fa49061213b565b60405180910390fd5b8073ffffffffffffffffffffffffffffffffffffffff16600660009054906101000a900473ffffffffffffffffffffffffffffffffffffffff1673ffffffffffffffffffffffffffffffffffffffff161461100757600080fd5b61109481600560009054906101000a900473ffffffffffffffffffffffffffffffffffffffff16600080600660009054906101000a900473ffffffffffffffffffffffffffffffffffffffff1673ffffffffffffffffffffffffffffffffffffffff1673ffffffffffffffffffffffffffffffffffffffff1681526020019081526020016000205461163c565b6000600660006101000a81548173ffffffffffffffffffffffffffffffffffffffff021916908373ffffffffffffffffffffffffffffffffffffffff16021790555050565b6000600160008473ffffffffffffffffffffffffffffffffffffffff1673ffffffffffffffffffffffffffffffffffffffff16815260200190815260200160002060008373ffffffffffffffffffffffffffffffffffffffff1673ffffffffffffffffffffffffffffffffffffffff16815260200190815260200160002054905092915050565b600560009054906101000a900473ffffffffffffffffffffffffffffffffffffffff1673ffffffffffffffffffffffffffffffffffffffff163373ffffffffffffffffffffffffffffffffffffffff16146111f0576040517f08c379a00000000000000000000000000000000000000000000000000000000081526004016111e79061213b565b60405180910390fd5b61123f600660009054906101000a900473ffffffffffffffffffffffffffffffffffffffff16600560009054906101000a900473ffffffffffffffffffffffffffffffffffffffff168361163c565b50565b600560009054906101000a900473ffffffffffffffffffffffffffffffffffffffff1673ffffffffffffffffffffffffffffffffffffffff163373ffffffffffffffffffffffffffffffffffffffff16146112d2576040517f08c379a00000000000000000000000000000000000000000000000000000000081526004016112c99061213b565b60405180910390fd5b611321600560009054906101000a900473ffffffffffffffffffffffffffffffffffffffff16600660009054906101000a900473ffffffffffffffffffffffffffffffffffffffff168361163c565b50565b600660009054906101000a900473ffffffffffffffffffffffffffffffffffffffff1673ffffffffffffffffffffffffffffffffffffffff163373ffffffffffffffffffffffffffffffffffffffff16146113b4576040517f08c379a00000000000000000000000000000000000000000000000000000000081526004016113ab906120bb565b60405180910390fd5b6113e1600660009054906101000a900473ffffffffffffffffffffffffffffffffffffffff16838361163c565b5050565b600073ffffffffffffffffffffffffffffffffffffffff168373ffffffffffffffffffffffffffffffffffffffff161415611455576040517f08c379a000000000000000000000000000000000000000000000000000000000815260040161144c9061211b565b60405180910390fd5b600073ffffffffffffffffffffffffffffffffffffffff168273ffffffffffffffffffffffffffffffffffffffff1614156114c5576040517f08c379a00000000000000000000000000000000000000000000000000000000081526004016114bc9061207b565b60405180910390fd5b80600160008573ffffffffffffffffffffffffffffffffffffffff1673ffffffffffffffffffffffffffffffffffffffff16815260200190815260200160002060008473ffffffffffffffffffffffffffffffffffffffff1673ffffffffffffffffffffffffffffffffffffffff168152602001908152602001600020819055508173ffffffffffffffffffffffffffffffffffffffff168373ffffffffffffffffffffffffffffffffffffffff167f8c5be1e5ebec7d5bd14f71427d1e84f3dd0314c0f7b2291e5b200ac8c7c3b925836040516115a3919061217b565b60405180910390a3505050565b60006115bc84846110d9565b90507fffffffffffffffffffffffffffffffffffffffffffffffffffffffffffffffff81146116365781811015611628576040517f08c379a000000000000000000000000000000000000000000000000000000000815260040161161f9061209b565b60405180910390fd5b61163584848484036113e5565b5b50505050565b600073ffffffffffffffffffffffffffffffffffffffff168373ffffffffffffffffffffffffffffffffffffffff1614156116ac576040517f08c379a00000000000000000000000000000000000000000000000000000000081526004016116a3906120fb565b60405180910390fd5b600073ffffffffffffffffffffffffffffffffffffffff168273ffffffffffffffffffffffffffffffffffffffff16141561171c576040517f08c379a00000000000000000000000000000000000000000000000000000000081526004016117139061205b565b60405180910390fd5b60008060008573ffffffffffffffffffffffffffffffffffffffff1673ffffffffffffffffffffffffffffffffffffffff168152602001908152602001600020549050818110156117a2576040517f08c379a0000000000000000000000000000000000000000000000000000000008152600401611799906120db565b60405180910390fd5b8181036000808673ffffffffffffffffffffffffffffffffffffffff1673ffffffffffffffffffffffffffffffffffffffff16815260200190815260200160002081905550816000808573ffffffffffffffffffffffffffffffffffffffff1673ffffffffffffffffffffffffffffffffffffffff1681526020019081526020016000206000828254611835919061228f565b925050819055508273ffffffffffffffffffffffffffffffffffffffff168473ffffffffffffffffffffffffffffffffffffffff167fddf252ad1be2c89b69c2b068fc378daa952ba7f163c4a11628f55a4df523b3ef84604051611899919061217b565b60405180910390a350505050565b60006118ba6118b5846121e2565b6121b1565b905080838252602082019050828560208602820111156118d957600080fd5b60005b8581101561190957816118ef888261197f565b8452602084019350602083019250506001810190506118dc565b5050509392505050565b60006119266119218461220e565b6121b1565b9050808382526020820190508285602086028201111561194557600080fd5b60005b85811015611975578161195b88826119e8565b845260208401935060208301925050600181019050611948565b5050509392505050565b60008135905061198e81612486565b92915050565b600082601f8301126119a557600080fd5b81356119b58482602086016118a7565b91505092915050565b600082601f8301126119cf57600080fd5b81356119df848260208601611913565b91505092915050565b6000813590506119f78161249d565b92915050565b600060208284031215611a0f57600080fd5b6000611a1d8482850161197f565b91505092915050565b60008060408385031215611a3957600080fd5b6000611a478582860161197f565b9250506020611a588582860161197f565b9150509250929050565b600080600060608486031215611a7757600080fd5b6000611a858682870161197f565b9350506020611a968682870161197f565b9250506040611aa7868287016119e8565b9150509250925092565b60008060408385031215611ac457600080fd5b6000611ad28582860161197f565b9250506020611ae3858286016119e8565b9150509250929050565b600060208284031215611aff57600080fd5b600082013567ffffffffffffffff811115611b1957600080fd5b611b2584828501611994565b91505092915050565b60008060408385031215611b4157600080fd5b600083013567ffffffffffffffff811115611b5b57600080fd5b611b6785828601611994565b925050602083013567ffffffffffffffff811115611b8457600080fd5b611b90858286016119be565b9150509250929050565b600060208284031215611bac57600080fd5b6000611bba848285016119e8565b91505092915050565b6000611bcf8383611fb4565b60208301905092915050565b611be4816122e5565b82525050565b6000611bf58261224a565b611bff818561226d565b9350611c0a8361223a565b8060005b83811015611c3b578151611c228882611bc3565b9750611c2d83612260565b925050600181019050611c0e565b5085935050505092915050565b611c51816122f7565b82525050565b6000611c6282612255565b611c6c818561227e565b9350611c7c81856020860161233a565b611c8581612475565b840191505092915050565b6000611c9d60238361227e565b91507f45524332303a207472616e7366657220746f20746865207a65726f206164647260008301527f65737300000000000000000000000000000000000000000000000000000000006020830152604082019050919050565b6000611d0360228361227e565b91507f45524332303a20617070726f766520746f20746865207a65726f20616464726560008301527f73730000000000000000000000000000000000000000000000000000000000006020830152604082019050919050565b6000611d69601d8361227e565b91507f45524332303a20696e73756666696369656e7420616c6c6f77616e63650000006000830152602082019050919050565b6000611da9601f8361227e565b91507f6e6f6c7920666f756e646174696f6e7320636f756c6420646f207468697321006000830152602082019050919050565b6000611de960268361227e565b91507f45524332303a207472616e7366657220616d6f756e742065786365656473206260008301527f616c616e636500000000000000000000000000000000000000000000000000006020830152604082019050919050565b6000611e4f60258361227e565b91507f45524332303a207472616e736665722066726f6d20746865207a65726f20616460008301527f64726573730000000000000000000000000000000000000000000000000000006020830152604082019050919050565b6000611eb560248361227e565b91507f45524332303a20617070726f76652066726f6d20746865207a65726f2061646460008301527f72657373000000000000000000000000000000000000000000000000000000006020830152604082019050919050565b6000611f1b60198361227e565b91507f6f6e6c79206f776e657220636f756c6420646f207468697321000000000000006000830152602082019050919050565b6000611f5b60258361227e565b91507f45524332303a2064656372656173656420616c6c6f77616e63652062656c6f7760008301527f207a65726f0000000000000000000000000000000000000000000000000000006020830152604082019050919050565b611fbd81612323565b82525050565b611fcc81612323565b82525050565b611fdb8161232d565b82525050565b6000602082019050611ff66000830184611bdb565b92915050565b600060208201905081810360008301526120168184611bea565b905092915050565b60006020820190506120336000830184611c48565b92915050565b600060208201905081810360008301526120538184611c57565b905092915050565b6000602082019050818103600083015261207481611c90565b9050919050565b6000602082019050818103600083015261209481611cf6565b9050919050565b600060208201905081810360008301526120b481611d5c565b9050919050565b600060208201905081810360008301526120d481611d9c565b9050919050565b600060208201905081810360008301526120f481611ddc565b9050919050565b6000602082019050818103600083015261211481611e42565b9050919050565b6000602082019050818103600083015261213481611ea8565b9050919050565b6000602082019050818103600083015261215481611f0e565b9050919050565b6000602082019050818103600083015261217481611f4e565b9050919050565b60006020820190506121906000830184611fc3565b92915050565b60006020820190506121ab6000830184611fd2565b92915050565b6000604051905081810181811067ffffffffffffffff821117156121d8576121d7612446565b5b8060405250919050565b600067ffffffffffffffff8211156121fd576121fc612446565b5b602082029050602081019050919050565b600067ffffffffffffffff82111561222957612228612446565b5b602082029050602081019050919050565b6000819050602082019050919050565b600081519050919050565b600081519050919050565b6000602082019050919050565b600082825260208201905092915050565b600082825260208201905092915050565b600061229a82612323565b91506122a583612323565b9250827fffffffffffffffffffffffffffffffffffffffffffffffffffffffffffffffff038211156122da576122d96123e8565b5b828201905092915050565b60006122f082612303565b9050919050565b60008115159050919050565b600073ffffffffffffffffffffffffffffffffffffffff82169050919050565b6000819050919050565b600060ff82169050919050565b60005b8381101561235857808201518184015260208101905061233d565b83811115612367576000848401525b50505050565b6000600282049050600182168061238557607f821691505b6020821081141561239957612398612417565b5b50919050565b60006123aa82612323565b91507fffffffffffffffffffffffffffffffffffffffffffffffffffffffffffffffff8214156123dd576123dc6123e8565b5b600182019050919050565b7f4e487b7100000000000000000000000000000000000000000000000000000000600052601160045260246000fd5b7f4e487b7100000000000000000000000000000000000000000000000000000000600052602260045260246000fd5b7f4e487b7100000000000000000000000000000000000000000000000000000000600052604160045260246000fd5b6000601f19601f8301169050919050565b61248f816122e5565b811461249a57600080fd5b50565b6124a681612323565b81146124b157600080fd5b5056fea264697066735822122017aa905df2e91442a7eba3ba5bd16fe4bbe0120121fa85f167c148cdec849a6864736f6c63430008000033",
    "linkReferences": {},
    "deployedLinkReferences": {}
}